:020000040800F2
:10000000000002209D020008A3020008A7020008C9
:10001000190300081D030008650300080000000024
:10002000000000000000000000000000AD03000818
:10003000B103000800000000B5030008E90E000845
:10004000C9030008C9030008C9030008C903000860
:10005000C9030008C9030008C9030008C903000850
:10006000C9030008C9030008C9030008C903000840
:10007000C9030008C9030008C9030008C903000830
:10008000C9030008C9030008C9030008C903000820
:10009000C9030008C9030008C9030008C903000810
:1000A000C9030008C9030008C9030008C903000800
:1000B000C9030008C9030008C9030008C9030008F0
:1000C000C9030008C9030008C9030008C9030008E0
:1000D000C9030008C9030008C9030008C9030008D0
:1000E000C9030008C9030008C9030008C9030008C0
:1000F000C9030008C9030008C9030008C9030008B0
:10010000C9030008C9030008C9030008C90300089F
:10011000C9030008C9030008C9030008C90300088F
:10012000C9030008C9030008C9030008C90300087F
:10013000C9030008C9030008C9030008C90300086F
:10014000C9030008C9030008C9030008C90300085F
:10015000C9030008C9030008C9030008C90300084F
:10016000C9030008C9030008C9030008C90300083F
:10017000C9030008C9030008C90300080000000003
:10018000C9030008C903000800B583B000F092FD60
:10019000304B314A1360314A1360314B314A03E02E
:1001A00052F8041B43F8041B2F498B42F8D32A4B07
:1001B0001A682E4B9A4200D0FEE7284B1A682C4B47
:1001C0009A42F9D1234B2B4A13602B4A13602B4BD5
:1001D00002E0002243F8042B294A9342F9D3254B2D
:1001E0001B6813B9244B1B6803B1FEE700F066FDE2
:1001F000694601A800F094FA224C234BE41AA4109B
:10020000002504E0204B53F8253098470135AC42D7
:10021000F8DC1E4C1E4BE41AA410002504E01C4B15
:1002200053F8253098470135AC42F8DC0099019825
:1002300000F006F90546174C174BE41AA41004E029
:10024000013C154B53F824309847002CF8DC284625
:1002500000F002FABABADECA280000200403002027
:1002600028000020DC87020808030020785634129A
:100270003254769808030020441B00200803002015
:10028000481B0020F4030008F403000810040008D1
:10029000F4030008100400081004000808B5FFF774
:1002A00073FF00BEFEE71EF0040F0CBFEFF30880E3
:1002B000EFF309807146414A10472DE9F04182B0C1
:1002C00004460D46124B5F6BD3F838809E6A1B6B59
:1002D00013F0020F03D00E4BDB6A002B0BDB0D4833
:1002E00000F0F0FC009543463A463146204600F0C7
:1002F000E9FB00BEFEE74BF6AB6100F05DFC0028B9
:10030000EDD0034B4FF00042DA6202B0BDE8F0815D
:1003100000ED00E0E83F020800BEFEE71EF0040F1B
:100320000CBFEFF30880EFF309807146244A1047B1
:100330002DE9F04182B004460D46084B5F6BD3F8BF
:1003400038809E6A064800F0BDFC009543463A4658
:100350003146204600F0B6FB00BEFEE700ED00E0AF
:10036000F83F02081EF0040F0CBFEFF30880EFF314
:1003700009807146134A10472DE9F04182B00446C6
:100380000D46084B5F6BD3F838809E6A064800F034
:1003900099FC009543463A463146204600F092FBD0
:1003A00000BEFEE700ED00E00440020800BEFEE7EC
:1003B00000BEFEE700BEFEE770470000BB0200087B
:0A03C0003103000879030008FEE78E
:1003CC00DC8702082800002008030020DC870208D4
:1003DC00000000100000001008030020481B002043
:1003EC00000000100000001099050008D905000855
:1003FC0021880008B5C60008412401084D87010872
:04040C00A59F01089F
:10041000012800D070474FF6FF739942FAD110B50A
:10042000044C204600F0C2FE034A0449204600F076
:1004300071FD10BD0C0300204404002005140008C9
:10044000F8B540F6B83000F031FD4B4AD2F83038FC
:1004500043F00803C2F83038A2F54052D2F8003C0D
:1004600023F07F5323F47C13C2F8003CD2F8003C05
:1004700043F0AA5343F4A813C2F8003C002708260F
:1004800019E03E481CF06EF83D4BD3F8103C13F0D9
:10049000010FF9D13A4BD3F8101CC1F3420139488E
:1004A0001BF08AFF10E0082627E013F0100F3BD165
:1004B00013F0080F49D134481CF054F8304BD3F8EE
:1004C000103C13F0010FDCD10125B5402C4CD4F8C1
:1004D000143C2B43C4F8143C4FF47A7000F0E6FC53
:1004E000D4F8143C23EA0505C4F8145C4FF4FA7000
:1004F00000F0DCFC0B2ED6D00136214BD3F8103C9B
:1005000013F0200FD1D021481CF02CF81C4BD3F84D
:10051000142C42F48052C3F8142CD3F8142C42F457
:100520008042C3F8142CC6E719481CF01BF8144B82
:10053000D3F8142C22F48052C3F8142CD3F8142CC2
:1005400022F48042C3F8142CB5E7394611481BF059
:1005500033FF97F0010707D0094AD2F8143C43F45F
:100560000053C2F8143CA6E7054AD2F8143C23F421
:100570000053C2F8143C9EE700300240283E0208B7
:1005800000000240343E0208203E0208443E0208B9
:10059000503E0208603E020808B54FF6FF71012088
:1005A000FFF736FF08BD0000012800D070474FF666
:1005B000FF739942FAD110B5044C204600F0F6FDC5
:1005C000034A0449204600F0A5FC10BD100300209A
:1005D000440400200514000808B54FF6FF710120FF
:1005E000FFF7E2FF08BD30B5132400252046294659
:1005F000ABBE0446204630BD38B504461AF086F935
:100600000546FFF7F0FF2860204638BDB0F1FF3FF8
:1006100000D0704708B5FFF7EFFF08BD10B50446DE
:100620000B4B186808B183695BB1132C0CD8094BCC
:1006300053F83430B3F1FF3F08D0064800EBC40054
:1006400010BD1AF091FAF0E70020F9E70020F7E773
:10065000D0000020A003002000B530B9044D1824BC
:1006600020462946ABBE0446FEE7024DF7E700BF31
:1006700026000200230002002DE9F04184B0234F40
:1006800001970326039600230293012401AD20461F
:100690002946ABBE80461E4BC3F8008001970396E7
:1006A0000423029320462946ABBE8046194BC3F86B
:1006B0000080019703960823029320462946ABBE8B
:1006C0000446154B1C60B4F1FF3F01D000230AE043
:1006D000104B1A68104B1A60F8E7104A4FF0FF31C0
:1006E00042F833100133132BF7DD0C4B084A126824
:1006F0001A6000225A60074909689960DA60064961
:10070000096819615A6104B0BDE8F081743E0208BD
:10071000980300209C03002094030020A0030020E5
:100720002DE9F04383B0814688462A4B00934F233E
:10073000019315276C4638462146ABBE0746A7BB3A
:10074000244B002283F84F20009A3E463C463D460B
:1007500007E001321E46204B43F8252001350124D5
:1007600001321378FBB164B91C49C9560029F7DB83
:10077000092BF5D0082D16DC222BEAD0272BEAD145
:10078000E7E736B19E42EBD1002313703E463C466C
:10079000E6E71249C956002901DB092BE0D1002305
:1007A00013703446DCE73DB900E00025094B002218
:1007B0001A70094A13600135074B002243F82520BF
:1007C000C9F80050C8F80030FFF756FF03B0BDE885
:1007D000F08300BF18030020680300201A77020886
:1007E00030B585B0019002910392062401AD2046F8
:1007F0002946ABBE04462046FFF708FF05B030BDD2
:1008000070B50D461446FFF709FF68B1064622464B
:1008100029460068FFF7E4FFB0F1FF3F03D0201A3C
:1008200073680344736070BD1AF070F809230360A5
:100830004FF0FF30F7E7F0B583B00C461546FFF7F1
:10084000EDFEC0B10646022D1CD8012D21D0022D8F
:1008500029D03368009301940A256F46284639460B
:10086000ABBE05462846FFF7D1FE00282BDB74609F
:10087000204603B0F0BD1AF049F8092303604FF099
:10088000FF30F6E71AF042F8162303604FF0FF300E
:10089000EFE74368E418DCD51AF038F81623036054
:1008A0004FF0FF30E5E7036800930C256F462846BC
:1008B0003946ABBE05462846FFF7A8FEB0F1FF3F1C
:1008C000D7D00444C5E74FF0FF30D2E708B5FFF7B3
:1008D000B2FF08BD30B585B00190029103920524A6
:1008E00001AD20462946ABBE04462046FFF78EFEEA
:1008F00005B030BD70B50D461446FFF78FFE70B1E0
:100900000646224629460068FFF7E4FF031E11DB76
:10091000E01A7268024472609C4207D070BD19F000
:10092000F5FF092303604FF0FF30F7E70020FFF7E2
:1009300063FEF3E74FF0FF30F0E730B583B001908E
:10094000022401AD20462946ABBE04462046FFF7EF
:100950005DFE03B030BD000038B50446FFF75EFE13
:1009600080B10546601E012804D80C4B9A681B69AB
:100970009A420ED02868FFF7E0FF10B94FF0FF331E
:100980002B6038BD19F0C2FF092303604FF0FF3020
:10099000F7E74FF0FF332B600020F2E7A0030020C1
:1009A00070B50C46FFF73AFEA8B10646636843F4FB
:1009B000005363604FF48063A3640C2528463146DE
:1009C000ABBE05462846FFF721FEB0F1FF3F01D040
:1009D0002061002070BD19F099FF092303604FF0DA
:1009E000FF30F7E738B505460C465822002120466F
:1009F0001AF0CEFD21462846FFF7D2FF38BD38B5A4
:100A0000FFF70CFE80B10546092420462946ABBEFF
:100A100004462046012C06D019F078FF0446FFF763
:100A2000E2FD2060002038BD19F070FF092303604B
:100A30000020F8E708B503460C4A12685AB10B4A81
:100A40001068033323F003030344094A934206D892
:100A5000064A136008BD054A06491160EFE719F020
:100A600055FF0C2303604FF0FF30F3E740040020F4
:100A700000F80120481B002000B583B08C461946C1
:100A8000134652B1074A53B101930092634602469E
:100A9000054800F017F900F00BF8044AF3E7034BA0
:100AA000F2E700BF783E0208883E0208E83E0208EE
:100AB00008B5034800F020F90120FFF7CDFD00BF85
:100AC000B83E0208F8B504460D4617461E462748AC
:100AD00000F0F8F82168264800F0F4F8616825482D
:100AE00000F0F0F8A168244800F0ECF8E168234831
:100AF00000F0E8F82169224800F0E4F86169214833
:100B000000F0E0F8A169204800F0DCF8E1691F4836
:100B100000F0D8F81E4800F0D5F829461D4800F02E
:100B2000D1F81D4CE16A1D4800F0CCF8216B1C483F
:100B300000F0C8F8E16B1B4800F0C4F815F0800F16
:100B40000AD115F4004F0CD1174800F0BBF80699F4
:100B5000164800F0B7F8F8BD3946154800F0B2F86D
:100B6000EFE73146134800F0ADF8EDE7CC3E020860
:100B7000DC3E0208EC3E0208FC3E02080C3F020884
:100B80001C3F02082C3F02083C3F02084C3F020871
:100B90005C3F0208683F020800ED00E0783F020871
:100BA000883F0208983F0208C83F0208D03F020869
:100BB000A83F0208B83F020838B583691B888B42FA
:100BC00001D0002038BD044603684568013B302B46
:100BD00068D8DFE803F045211C1C5D30332D19195E
:100BE0006719191919193619246719276739676799
:100BF0006767676767676767676767676767676785
:100C000067676767671919004FF0FF330360A369CF
:100C10000233A3610120D5E700230360F7E7002337
:100C20000360F4E700232B606B60AB60EB60EEE7E2
:100C300000230360EBE7AB680360E8E70023036091
:100C4000E5E700230360E2E7BFF34F8F1649CA6868
:100C500002F4E062154B1343CB60BFF34F8FFEE706
:100C6000134928681BF0EBFD40B96B6813B90123E9
:100C70002360CCE7042B05D0082B06D04FF0FF33C0
:100C80002360C4E702232360C1E703232360BEE798
:100C90002B68023B012B02D9AB680360B7E7002346
:100CA0000360B4E700208DE700ED00E00400FA05E2
:100CB000743E020808B500F067F808BD08B500F0FA
:100CC00083F808BD0FB400B583B004AB53F8042B10
:100CD0000193802107481DF087FF002804DC03B042
:100CE0005DF804EB04B070470146024800F048F894
:100CF000F5E700BF4804002010B504461CF0D4FC02
:100D00000146204600F03CF80121024800F038F886
:100D100010BD00BF643F0208F0B585B006460D4621
:100D2000154B1B688BB9154B0193042302930323C6
:100D30000393012401AF20463946ABBE044620464A
:100D4000B4F1FF3F13D00C4B1C600B4B1B6801939D
:100D500002960395052401AE20463146ABBE0446FB
:100D60002046B4F1FF3F02D0A54202D0281B05B0B7
:100D7000F0BD4FF0FF30FAE7C8040020743E0208CF
:100D800008B5FFF7C9FF08BD0C4B1A6842F0010215
:100D90001A60002199601A6822F0847222F480326D
:100DA0001A60074A5A601A6822F480221A60D960D1
:100DB000044B4FF000629A60704700BF0038024059
:100DC0001030002400ED00E0224B9B6803F00C0380
:100DD000042B15D0082B17D01BB11F4B1F4A1A60CC
:100DE00002E01D4B1D4A1A601A4B9B68C3F30313A4
:100DF0001B4AD35CDAB218490B68D3400B607047CA
:100E0000154B184A1A60EFE7124B59685A6802F0FE
:100E10003F0211F4800F13D0124BB3FBF2F30D4AD3
:100E20005268C2F3881202FB03F30A4A5268C2F303
:100E3000014201325200B3FBF2F3074A1360D3E7D9
:100E4000064BB3FBF2F3034A5268C2F3881202FB6B
:100E500003F3EAE700380240400000200024F400D9
:100E60003000002000127A000C4B1B680C4AA2FBD9
:100E700003239B09013BB3F1807F0AD24FF0E022AC
:100E80005361084BF02183F823100023936107235B
:100E90001361054B01221A70704700BF400000200B
:100EA000D34D621000ED00E0D004002010B50446E0
:100EB0000B4B1B7833B1BFF35B8F0A4B1C60BFF346
:100EC0005B8F03E0FFF7D0FFF5E720BFBFF35B8F39
:100ED000044B1B68BFF35B8F002BF6D110BD00BF26
:100EE000D0040020CC040020BFF35B8F084B1B68AC
:100EF000BFF35B8F5BB1064BBFF35B8F53E8002FF3
:100F0000013A43E800210029F8D1BFF35B8F704715
:100F1000CC0400200B460146184619F0E9BC7FB509
:100F200000241023CDE90234036815469E69126837
:100F30006B46CDE90044B0479DF8043003F006034A
:100F4000062B03BF009B2B600120204604B070BD20
:100F50000098904214BF01200620704710B5034B43
:100F60000360044600F0D1F8204610BD4C40020852
:100F700010B50446FFF7F2FF2046082100F042F8C2
:100F8000204610BD2DE9F0411F46DDE90834DDF8AB
:100F9000188098450646154607D1079900F0B8F81D
:100FA00018B165710020BDE8F0813946304600F087
:100FB000AFF80028F6D00123C4F800802571A37192
:100FC000F0E738B515461C4600F0A2F820B108231A
:100FD000E36006232560237138BD2DE9F041054605
:100FE0000C4616461F4600F093F848B9032F07D861
:100FF00023683246294620465B69BDE8F041184720
:10100000BDE8F08117F0DEBE10B5034B0360044667
:10101000FFF7A4FF204610BDAC40020810B50446FF
:10102000FFF7F2FF20460C21FFF7ECFF204610BD32
:101030002DE9F041DDF81880904506460F4615462B
:101040001C460BD0B0680368CDF818801E6A2A468B
:1010500023463946B446BDE8F0416047194600F0E2
:1010600057F80028EED00620BDE8F0812DE9F14FB9
:101070000D461946DDE90A4BDDE90CA68146174607
:10108000984600F045F890B1002D3460377109DBC7
:101090002C44A2450CBF06240124B471002001B0E9
:1010A000BDE8F08F0235F9D10123B371F6E754455D
:1010B00006D15946484600F02BF808B17771EDE7A4
:1010C000D9F808000368CDE90CA6CDE90A4BDC6924
:1010D0003A4643462946A44601B0BDE8F04F604772
:1010E0002DE9F04107460C4615461E46FFF769FFFD
:1010F00048B9B86803689F692A4633462146BC460A
:10110000BDE8F0416047BDE8F081704700207047BE
:10111000814208B50ED0406803782A2B0CD049686C
:101120000B782A2B08BF01311BF089FBB0FA80F045
:10113000400908BD0120FCE70020FAE770B5061D54
:10114000044630460D460BF01FFD0023C4E91D3355
:10115000C4E92033C4E9223384F87C30044B236093
:101160001433636029463046BDE870400BF0F5BC8F
:101170007866020870B5061D044630460D460BF031
:1011800003FD0023C4E91F33C4E921336367A4F8D6
:101190007830054B23601433636029463046BDE840
:1011A00070400BF08FBC00BF486602082DE9F74F76
:1011B000DFF8F4910090D9F80040631CC9F80030C2
:1011C000002C40F0ED80DFF8E4B1794B794F7A4E96
:1011D000DFF8E8A101221A70DBF80030784A9D6838
:1011E000BC61C7E90024C7E90244C7E9044407F128
:1011F0001C0000F0B3FEDBF80010714A3D624FF0B6
:10120000FF384D68C7F800A0C7F82480C6E900245D
:10121000C6E90244C6E90444B46106F11C0000F0CA
:101220009DFEC6E90858DBF80010664D644ACB689D
:10123000C6F800A0C5E90024C5E90244C5E9044494
:10124000AC6105F11C00019300F088FE019BC5F81C
:1012500000A0DFF874A1C5E9083839465046FFF709
:1012600089FF5A4A10460BF08FFC584A584942F8F9
:10127000081CA2F108071431B9603146554E1467B5
:10128000C2E91E44C2E92044A2F8744042F8044C6A
:1012900010460BF017FC29463046FFF76BFF294636
:1012A0004D48FFF767FF3269DBF80030C7F878A0D8
:1012B00042F40052494F3261494A9D68C6F874A011
:1012C000C7E90024C7E90244C7E90444BC6107F147
:1012D0001C0000F043FE434EDBF80010404ADFF8EC
:1012E00008A1C7F800A0C7E9085806F11C004D681E
:1012F000B461C6E90024C6E90244C6E9044400F02A
:101300002DFEDBF80010364AD1F80CB0C6F800A06C
:10131000C6E90858354DC5E90024C5E90244C5E9C8
:101320000444AC6105F11C0000F018FEC5E908B8E2
:10133000DFF8BCB0DFF8BC80C5F800A039465846DD
:10134000FFF7FCFE40460BF01FFC2B4B88F8784063
:10135000A8F10807C8E91C44C8E91F44C8E92144AA
:1013600048F8083C48F8044C1433244CBB60314620
:1013700040460BF0F2FB29462046FFF7DFFE2048EF
:101380002946FFF7DBFE2369C8F870B043F4005329
:101390002361D9F80030C4F874B00133C9F80030C3
:1013A000009803B0BDE8F08FD8140020D0000020D2
:1013B00044000020F8150020A8150020485E02080F
:1013C00060670208D015002040180020A0160020F9
:1013D0000C60020828170020B417002070160020A7
:1013E000A067020820160020885E02084816002028
:1013F000801A0020D41800203C60020860190020E8
:10140000F01900200D4A1368591E022B10B504462E
:10141000116011D10A4811F0CAF80A4811F0C7F852
:10142000094811F0C4F8094811F0DDF8084811F036
:10143000DAF8084811F0D7F8204610BDD81400207B
:101440004018002028170020B4170020801A002020
:1014500060190020F019002070474268511E012ACF
:10146000416002D103685B6818477047044A0B6803
:101470001268036093421EBF1A6801321A607047F7
:10148000D80400200160704702490348002218F088
:1014900059B800BFE5400208E004002010B5034C35
:1014A00023680BB9FFF7F0FF206810BDE0040020AF
:1014B00000487047E540020838B5436804465BB110
:1014C0000025D4E90132AA4206D953F8250008B113
:1014D000FFF7C3FF0135F4E7606808B117F074FC4B
:1014E000E3685BB10025D4E90223AA4206D953F888
:1014F000250008B1FFF7B1FF0135F4E7E06808B156
:1015000017F062FC23691BB9206958B9204638BD21
:1015100000252369585908B117F056FC0435182DD9
:10152000F7D1F1E717F050FCF0E703685A1E012BE2
:1015300010B50446026006D1FFF7BEFF2046BDE8A5
:10154000104017F03FBC10BD054B10B51B6804469A
:101550000068984201D0FFF7E8FF204610BD00BFA9
:10156000D80400200A4A38B50B680D4611688B4232
:1015700018BF1A68044600681CBF01321A60814215
:1015800001D0FFF7D2FF2B682360204638BD00BF93
:10159000D8040020036823B9034A13680133136099
:1015A0000360006801387047DC0400202DE9F84F23
:1015B000044616460846002A00F0AD80FFF7EAFF11
:1015C000A368013B9842054641D900F104086FF039
:1015D0006043984534BF4FEA88074FF0FF373846DD
:1015E000D4F804A017F087FC8346A0680023984233
:1015F00069D1C0F104022A449200804538BF00221C
:1016000000210BEB800019F0C3FF3846D4F80C9092
:1016100017F071FC0746A068002398425AD1C0F128
:1016200004022A449200804538BF0022002107EBC3
:10163000800019F0ADFFC4E901B8E760BAF1000F0E
:101640004FD1B9F1000F02D0484617F0BDFB7368C7
:10165000D4F804900133736059F825300BB32F4947
:101660000868D0B1FFF796FF85423ED14868D4F8AC
:1016700004A0FFF78FFF5AF8203007466BB1496886
:10168000304608F03FF843680133804643605AF81B
:101690002700FFF7E2FE4AF8278059F82500FFF7F8
:1016A000DCFE49F8256000252E46A368AB4232D9FE
:1016B000E36853F8250020B1FFF7CFFEE36843F855
:1016C00025600135F1E7626852F823204BF82320AA
:1016D00001338CE7E26852F8232047F823200133D6
:1016E0009BE7504617F070FBABE74868FFF752FFE7
:1016F00085420ED10868D4F804A0FFF74BFF5AF8D2
:1017000020300746002BC8D00968304602F00EFF93
:10171000B9E70831A4E7BDE8F88F00BF044102082B
:101720002DE9F041214F3B78BFF35B8FDB07064685
:101730000C46154606D4384617F0B5FB10B13846AE
:1017400017F0BDFB1A490868F0B1FFF723FFA84264
:1017500048680DD1FFF71EFF0346F16851F82520B8
:10176000AAB104B3236820465B68BDE8F04118477E
:10177000FFF710FFA84205D10868FFF70BFF2B46C3
:101780000546EAE70831DEE74FF0FF33E5E7626838
:10179000501C6060581C18BF023241F825401CBF25
:1017A000626041F82340BDE8F08100BFD40400200E
:1017B0000441020810B5084C2378BFF35B8FDB07A8
:1017C00008D4204617F06FFB20B12046BDE810403A
:1017D00017F075BB10BD00BFE80400202DE9F04FE5
:1017E00030238360CA4B0160C02487B0074622467D
:1017F0000021184619F0CCFEC64B786022461846E8
:10180000002119F0C5FEC44CC44DF860142200211B
:10181000201D19F0BDFE3C612560FFF749FEC04C5C
:1018200003882B80002201231146204604F06EFB22
:101830002246BC4CBC49BD4DDFF8F4B2BD4EDFF8CA
:10184000F8A2DFF8F8923846FFF7B0FE01212046F3
:1018500017F0E8FE22463846B949FFF7A7FEB94A15
:10186000B94B136000244FF00108B84B2B60C2E95C
:101870000244C2E90544C2E90744C2F80480147472
:10188000948482F86440C5F80480AA602146284602
:1018900000F01EFF2A463846AD49AE4DFFF786FEE2
:1018A000AD4AAE4BC2F8048013603846AC49FFF72E
:1018B0007DFEAC4AAC4BC2F804801360AB4938469D
:1018C000FFF774FEAA4B2B60C5F80480FFF7E6FD16
:1018D0002A46A860A749A84D3846FFF767FEA74BE0
:1018E000A74A1A60A74AC3F80480C3E90244C3E9BF
:1018F0000544C3E90744C3E90944C3E90B441C8216
:101900009C745C6383F84340AB60C5F804802A6034
:1019100021462246284600F07FFB2A4638469A494F
:101920009A4DFFF743FE9A4ACBF80020994AC5F832
:1019300004802A60C5F808B0224621462846CBE933
:101940000244CBE90544CBE90744CBE90944CBE9A0
:101950000B44CBF80480ABF810408BF81240CBF866
:1019600034408BF8434000F013FB2A4638468A493E
:101970008A4DFFF71BFE8A4A8A49C2F8048011602B
:1019800038468949FFF712FE884A8949C2F804801F
:10199000116038468749FFF709FE874A32603146B1
:1019A00042462846C6E90244C6E90444C6E906445C
:1019B000C6E90844C6E90A44C6E90C44C6E90E442F
:1019C000C6E91044C6E91244C6E91444C6E91644FF
:1019D000C6E91844C6E91A44C6E91C44C6E91E44CF
:1019E000C6F80480C6E92044C6E92244C6E9244476
:1019F000C6E92644C6E92844C6E92A44C6E92C4477
:101A0000C6E92E44C6F8C04086F8C4400BF054FD29
:101A10002A46384669496A4DFFF7C8FD694A6A494E
:101A2000C2F80480116038466849FFF7BFFD684A74
:101A30006849C2F80480116038466749FFF7B6FD6F
:101A40004146284605F022F82A46644D6449384646
:101A5000FFF7ACFD4146284604F044FA2A46614DA2
:101A600061493846FFF7A2FD4146284617F0EAFDD6
:101A70002A4638465D495E4DFFF798FD5D4B5E4A4C
:101A80001A605E4AC3F80480C3E90244C3E905440E
:101A9000C3E90744C3E909441C7483F82441AB60DB
:101AA000C5F804802A602146284600F079FE2A46BF
:101AB00038465349534DFFF779FD534A5349C2F80D
:101AC0000480116038465249FFF770FD514A52496F
:101AD000C2F80480116038465049FFF767FD504A4C
:101AE000C5F804802A60FFF7D9FC2A46A8604D4952
:101AF0004D4D3846FFF75AFD4C4ACAF800204C4A73
:101B0000C5F804802A60C5F808A02246214691E065
:101B100090120020A011002088110020780A0020D7
:101B2000840A002060120020501400200C050020C0
:101B3000540900208007002098090020080A00208E
:101B4000A0150020F00500200C4202086050020899
:101B5000841400207812002050130020FC6002083A
:101B60002415002060130020386102082015002091
:101B70004450020878140020B0050020100900200D
:101B8000A4410208B850020894140020BC050020AB
:101B9000944102088450020890140020740500202B
:101BA00054050020085102088C1400206405002010
:101BB0002051020888140020686102081C150020CA
:101BC000EC04002024050020385102088014002075
:101BD000340500206862020818150020A40C0020BB
:101BE0007C1400206C12002054140020A415002046
:101BF00018050020580600201C420208385B020825
:101C0000C41400208412002058130020F468020835
:101C10008415002068130020306902088015002018
:101C20001C5B0208B8140020C8050020C44102084B
:101C3000905B02082846CAE90244CAE90544CAE999
:101C40000744CAE90944CAE90B44CAE90D44CAF881
:101C500004808AF81040CAF83C408AF86C4000F0D2
:101C60009BFA2A4638468249824DFFF79FFC824AFA
:101C7000C9F80020814AC5F804802A60C5F8089098
:101C8000224621462846C9E90244C9E90544C9E972
:101C90000744C9E90944C9E90B44C9E90D44C9F835
:101CA000048089F81040C9F83C4089F86C4000F085
:101CB0002BFA2A4638467249724DFFF777FC724A72
:101CC0007249C2F80480116038467149FFF76EFC12
:101CD000704A7149C2F80480116038466F49FFF7B5
:101CE00065FC6F4AC5F80480C5E90244C5E90444AF
:101CF000C5E90644C5E90844C5E90A44C5E90C44F8
:101D0000C5E90E44C5E91044C5E91244C5E91444C7
:101D1000C5E91644C5E91844C5E91A44C5E91C4497
:101D2000C5E91E442A60C5E92044C5E92244C5E945
:101D30002444C5E92644C5E92844C5E92A44C5E93F
:101D40002C44C5E92E44C5F8C04085F8C440554C24
:101D500042462946204611F0A5FD22463846524902
:101D6000524CFFF723FC524A5249C2F804801160DA
:101D700038465149FFF71AFC504A5149C2F80480CD
:101D8000116038464F49FFF711FC4146204608F0E4
:101D9000B1FD224638464C49FFF708FC4B4A4C49F6
:101DA000C2F80480116038464A49FFF7FFFB4A4AEF
:101DB0004A49C2F80480116038464949FFF7F6FBEA
:101DC000484A4949C2F80480116038464749FFF73C
:101DD000EDFB474A4749C2F804801160384646493E
:101DE000DFF81881FFF7E2FB454B464A009269464F
:101DF0003846CDE9013BCDE9038ACDF8149001F0D6
:101E0000E7FA4148FC68FFF7C5FB3E4A44F820204A
:101E10003E48FC68FFF7BEFB394B44F820303C4895
:101E2000FC68FFF7B7FB44F820B03A48FC68FFF7BE
:101E3000B1FB44F820603848FC68FFF7ABFB44F87E
:101E400020800B48FC68FFF7A5FB44F820A00C4855
:101E5000FC68FFF79FFB44F820901348FC68FFF7ED
:101E600099FB44F82050384607B0BDE8F08F00BF1A
:101E7000D4140020D4050020B44102085C5B0208A1
:101E8000D0140020480800205C050020E05B020818
:101E9000CC1400206C050020F85B0208C814002058
:101EA00060690208880500207C150020FC040020E1
:101EB0002C050020105C0208C01400203C05002006
:101EC000606A020878150020BC1400204405002038
:101ED0005C4502087C1300204C05002004450208E4
:101EE00074130020E005002030450208781300201C
:101EF000E8050020D844020870130020580600208E
:101F000010090020F0050020841400209414002003
:101F1000901400201C150020C414002010B5074C9C
:101F200002212046FFF75AFC054B06481C60064B71
:101F300021461C60BDE81040FFF7A4BA9C050020B4
:101F4000D804002084110020E4040020024B1B6808
:101F50000BB9FFF7E3BF7047D804002038B5002362
:101F600003600446084DFFF7F1FF084A2B6812682A
:101F70002360934206D0FFF71DFC2B6823601A688C
:101F800001321A60204638BDE4040020D804002045
:101F900038B584680546ACB9442016F09BFF1A4B4F
:101FA0000482C0E90034C0E90244C0E90544C0E944
:101FB0000744C0E90944C0E90B448474446380F8D1
:101FC0004340A860AB6811492E225A74AB682C229A
:101FD0009A74AA680023C2E90513C2E90713C2E98B
:101FE000091391600A49D36008681063D362AA6834
:101FF0005063084A1068AA68C15C1A4401330B2B6D
:1020000082F83810F7D138BD9441020856670208AB
:10201000007102085000002038B584680546ACB94C
:10202000442016F057FF1A4B0482C0E90034C0E97F
:102030000244C0E90544C0E90744C0E90944C0E9D5
:102040000B448474446380F84340A860AB68114932
:102050002E225A74AB682C229A74AA680023C2E913
:102060000513C2E90713C2E9091391600A49D36055
:1020700008681063D362AA685063084A1068AA68A7
:10208000C15C1A4401330B2B82F83810F7D138BDEC
:10209000A44102085667020800710208500000209F
:1020A000064B10B504460360806810B103685B6896
:1020B00098472046FFF7D0F9204610BD845002080B
:1020C00010B50446FFF7ECFF204616F07BFE2046D5
:1020D00010BD0000064B10B504460360806810B1C7
:1020E00003685B6898472046FFF7B6F9204610BDA5
:1020F000B850020810B50446FFF7ECFF204616F072
:1021000061FE204610BD000038B584680546B4B9AC
:10211000702016F0DFFEC0E90244C0E90544C0E9C2
:102120000744C0E90944C0E90B44C0E90D44154B1C
:10213000446003600474C46380F86C40A860AB68BA
:102140002E212C22C3E905120F49104A9A60002261
:10215000C3E90712C3E90912C3E90B12DA605A6333
:102160000B4A10689863AB68D8630A4BAA681B686F
:102170004032591E0A3311F8010F42F8040B9942FC
:10218000F9D138BDB44102085087020856670208E9
:10219000007102085000002038B584680546B4B9C3
:1021A000702016F097FEC0E90244C0E90544C0E97A
:1021B0000744C0E90944C0E90B44C0E90D44154B8C
:1021C000446003600474C46380F86C40A860AB682A
:1021D0002E212C22C3E905120F49104A9A600022D1
:1021E000C3E90712C3E90912C3E90B12DA605A63A3
:1021F0000B4A10689863AB68D8630A4BAA681B68DF
:102200004032591E0A3311F8010F42F8040B99426B
:10221000F9D138BDC4410208508702085667020848
:102220000071020850000020064B10B50446036000
:10223000806810B103685B6898472046FFF70CF987
:10224000204610BD5C5B020810B50446FFF7ECFFAA
:10225000204616F0B7FD204610BD0000064B10B515
:1022600004460360806810B103685B6898472046A5
:10227000FFF7F2F8204610BD905B020810B5044647
:10228000FFF7ECFF204616F09DFD204610BD000034
:102290000D4B10B5036090F8433004467BB1806865
:1022A00008B116F091FD606908B116F08DFDE06986
:1022B00008B116F089FD606A08B116F085FD204668
:1022C000FFF7CAF8204610BD9441020810B5044635
:1022D000FFF7DEFF204616F075FD204610BD00001A
:1022E0000D4B10B5036090F8433004467BB1806815
:1022F00008B116F069FD606908B116F065FDE06986
:1023000008B116F061FD606A08B116F05DFD204667
:10231000FFF7A2F8204610BDA441020810B50446FC
:10232000FFF7DEFF204616F04DFD204610BD0000F1
:102330000D4B10B5036090F86C3004467BB180689B
:1023400008B116F041FDE06908B116F03DFD606A84
:1023500008B116F039FDE06A08B116F035FD2046E7
:10236000FFF77AF8204610BDB441020810B50446C4
:10237000FFF7DEFF204616F025FD204610BD0000C9
:102380000D4B10B5036090F86C3004467BB180684B
:1023900008B116F019FDE06908B116F015FD606A84
:1023A00008B116F011FDE06A08B116F00DFD2046E7
:1023B000FFF752F8204610BDC441020810B504468C
:1023C000FFF7DEFF204616F0FDFC204610BD0000A2
:1023D00038B584680546ACB9442016F07BFD1A4B2D
:1023E0000482C0E90034C0E90244C0E90544C0E900
:1023F0000744C0E90944C0E90B448474446380F88D
:102400004340A860AB6811492E225A74AB682C2255
:102410009A74AA680023C2E90513C2E90713C2E946
:10242000091391600A49D36008681063D362AA68EF
:102430005063084A1068AA68C15C1A4401330B2B28
:1024400082F83810F7D138BD944102085667020867
:10245000007102085000002038B584680546ACB908
:10246000442016F037FD1A4B0482C0E90034C0E95D
:102470000244C0E90544C0E90744C0E90944C0E991
:102480000B448474446380F84340A860AB681149EE
:102490002E225A74AB682C229A74AA680023C2E9CF
:1024A0000513C2E90713C2E9091391600A49D36011
:1024B00008681063D362AA685063084A1068AA6863
:1024C000C15C1A4401330B2B82F83810F7D138BDA8
:1024D000A44102085667020800710208500000205B
:1024E000064B10B504460360806810B103685B6852
:1024F00098472046FEF7B0FF204610BD88610208CD
:1025000010B50446FFF7ECFF204616F05BFC2046B2
:1025100010BD0000064B10B504460360806810B182
:1025200003685B6898472046FEF796FF204610BD7B
:10253000BC61020810B50446FFF7ECFF204616F018
:1025400041FC204610BD000038B584680546B4B98A
:10255000702016F0BFFCC0E90244C0E90544C0E9A0
:102560000744C0E90944C0E90B44C0E90D44154BD8
:10257000446003600474C46380F86C40A860AB6876
:102580002E212C22C3E905120F49104A9A6000221D
:10259000C3E90712C3E90912C3E90B12DA605A63EF
:1025A0000B4A10689863AB68D8630A4BAA681B682B
:1025B0004032591E0A3311F8010F42F8040B9942B8
:1025C000F9D138BDB44102085087020856670208A5
:1025D000007102085000002038B584680546B4B97F
:1025E000702016F077FCC0E90244C0E90544C0E958
:1025F0000744C0E90944C0E90B44C0E90D44154B48
:10260000446003600474C46380F86C40A860AB68E5
:102610002E212C22C3E905120F49104A9A6000228C
:10262000C3E90712C3E90912C3E90B12DA605A635E
:102630000B4A10689863AB68D8630A4BAA681B689A
:102640004032591E0A3311F8010F42F8040B994227
:10265000F9D138BDC4410208508702085667020804
:102660000071020850000020064B10B504460360BC
:10267000806810B103685B6898472046FEF7ECFE5F
:10268000204610BD8069020810B50446FFF7ECFF34
:10269000204616F097FB204610BD0000064B10B5F3
:1026A00004460360806810B103685B689847204661
:1026B000FEF7D2FE204610BDB469020810B50446EC
:1026C000FFF7ECFF204616F07DFB204610BD000012
:1026D00038B58468054684B9682016F0FBFBC0E96C
:1026E0000244C0E90544C0E907441A4B4460036052
:1026F0000474848480F86440A860AA68164B9360D0
:102700002E21002382F82410D3601374AA682C2190
:1027100082F82510114A1068AA68C15C1A44013376
:10272000242B82F82610F7D10D4B18680023AA68D5
:10273000C15C1A4401331A2B82F84A10F7D1AB68F6
:10274000084A5A6104229A61074ADA6105221A622C
:1027500038BD00BF0C420208566702084C0000203A
:1027600048000020CC410208D1410208064B10B5B8
:1027700004460360806810B103685B689847204690
:10278000FEF76AFE204610BD6050020810B50446F0
:10279000FFF7ECFF204616F015FB204610BD0000A9
:1027A00038B58468054694B94FF4947016F092FBDE
:1027B000C0E90244C0E90544C0E90744C0E909444E
:1027C000184B44600360047480F82441A860AB682F
:1027D000154A9A6000222E21DA601A742C22C3E96D
:1027E0000912124A126803F12C00511E233211F80B
:1027F000014F40F8044B9142F9D10D4A126803F1A0
:10280000BC00511E193211F8014F40F8044B91429F
:10281000F9D1084A5A6104229A61074ADA6105220D
:102820001A6238BD1C420208566702084C0000209C
:1028300048000020D8410208EC410208064B10B5C0
:1028400004460360806810B103685B6898472046BF
:10285000FEF702FE204610BD385B020810B50446A4
:10286000FFF7ECFF204616F0ADFA204610BD000041
:102870000B4B10B5036090F8643004465BB1806880
:1028800008B116F0A1FA606908B116F09DFAE06986
:1028900008B116F099FA2046FEF7DEFD204610BD7D
:1028A0000C42020810B50446FFF7E2FF204616F07E
:1028B00089FA204610BD00000B4B10B5036090F85C
:1028C000243104465BB1806808B116F07DFA606976
:1028D00008B116F079FAE06908B116F075FA2046E9
:1028E000FEF7BAFD204610BD1C42020810B5044692
:1028F000FFF7E2FF204616F065FA204610BD000003
:1029000038B58468054684B9682016F0E3FAC0E952
:102910000244C0E90544C0E907441A4B446003601F
:102920000474848480F86440A860AA68164B93609D
:102930002E21002382F82410D3601374AA682C215E
:1029400082F82510114A1068AA68C15C1A44013344
:10295000242B82F82610F7D10D4B18680023AA68A3
:10296000C15C1A4401331A2B82F84A10F7D1AB68C4
:10297000084A5A6104229A61074ADA6105221A62FA
:1029800038BD00BF0C420208566702084C00002008
:1029900048000020CC410208D1410208064B10B586
:1029A00004460360806810B103685B68984720465E
:1029B000FEF752FD204610BDD860020810B504464F
:1029C000FFF7ECFF204616F0FDF9204610BD000091
:1029D00038B58468054694B94FF4947016F07AFAC5
:1029E000C0E90244C0E90544C0E90744C0E909441C
:1029F000184B44600360047480F82441A860AB68FD
:102A0000154A9A6000222E21DA601A742C22C3E93A
:102A10000912124A126803F12C00511E233211F8D8
:102A2000014F40F8044B9142F9D10D4A126803F16D
:102A3000BC00511E193211F8014F40F8044B91426D
:102A4000F9D1084A5A6104229A61074ADA610522DB
:102A50001A6238BD1C420208566702084C0000206A
:102A600048000020D8410208EC410208064B10B58E
:102A700004460360806810B103685B68984720468D
:102A8000FEF7EAFC204610BDD068020810B50446E7
:102A9000FFF7ECFF204616F095F9204610BD009B8D
:102AA00003201A6070470020704700207047042000
:102AB0007047009B03201A607047009B03201A6038
:102AC0007047009B03201A607047D0E90032D21A89
:102AD000F0B5044663D093F900501878002D02DB5E
:102AE00001332360F0BDC1283AD9DF280ED8012A6E
:102AF00055D05A7802F0C005802D31D102EB8010FC
:102B0000A0F542508142EDD30233EAE7EF281AD80C
:102B1000022A44D95A7802F0C005802D20D1E0283D
:102B200001D19F2A1CD99D7805F0C006802E17D1AF
:102B3000920102EB00304219A2F5622080388142F6
:102B4000D0D30333CDE7F4280AD8032A27D95A78FB
:102B500002F0C005802D03D1F02804D18F2A06D8B9
:102B60004FF0FF30BEE7F42801D18F2AF8D89E78C5
:102B700006F0C005802DF3D1DD7805F0C007802F69
:102B8000EED1120302EB804202EB86122A44A2F13C
:102B90007270A0F502508842A4D80433A1E76FF008
:102BA00001009FE7D0E90032D21AF0B5044663D0A5
:102BB00093F900501878002D02DB01332360F0BD3B
:102BC000C1283AD9DF280ED8012A55D05A7802F008
:102BD000C005802D31D102EB8010A0F5425081421A
:102BE000EDD30233EAE7EF281AD8022A44D95A78FB
:102BF00002F0C005802D20D1E02801D19F2A1CD9E8
:102C00009D7805F0C006802E17D1920102EB0030AE
:102C10004219A2F5622080388142D0D30333CDE738
:102C2000F4280AD8032A27D95A7802F0C005802D43
:102C300003D1F02804D18F2A06D84FF0FF30BEE729
:102C4000F42801D18F2AF8D89E7806F0C005802D8F
:102C5000F3D1DD7805F0C007802FEED1120302EB2F
:102C6000804202EB86122A44A2F17270A0F5025053
:102C70008842A4D80433A1E76FF001009FE77F29C1
:102C800008D8D0E900329A4242D05A1C026019702A
:102C900001207047B1F5006F10D2D0E90032D21A8E
:102CA000012A35D95A1C02608A09403A1A70036811
:102CB00001F03F015A1C02608039E8E7B1F5803F1E
:102CC00011D2D0E90032D21A022A21D95A1C02604C
:102CD0000A0B203A1A700268531C0360C1F3851373
:102CE000803B1370E3E7B1F5881F11D2D0E90032C1
:102CF000D21A032A0CD95A1C02608A0C103A1A7094
:102D00000268531C0360C1F30533803B1370E2E794
:102D1000002070477F2910B508D8D0E900329A42C8
:102D200047D05A1C02601970012010BDB1F5006F28
:102D30000FD2D0E90032D21A012A3AD98C091A46A8
:102D4000403C02F8024B01F03F01803902605970AB
:102D5000EAE7B1F5803F12D2D0E90032D21A022A56
:102D600027D90A0B203A1A70C1F38512803A01F074
:102D70003F015A708039DA1C02609970D4E7B1F5CE
:102D8000881F16D2D0E90032D21A032A11D98A0C30
:102D9000103A1A70C1F30532803A5A70C1F38512A5
:102DA000803A01F03F019A7080391A1D0260D97093
:102DB000BAE70020B9E7B1F5803F10B5D0E900438C
:102DC0000BD2A34222D0D30789B201D449BA89B227
:102DD000A31C03602180012010BD1B1B022B15D9F1
:102DE0008B0AC1F30901A3F52153A1F5105112F08B
:102DF00001029BB289B201D15BBA9BB223800AB9AE
:102E000049BA89B2231D03606180E4E70020E3E74B
:102E100073B51E46079B0093089B01931446A64278
:102E2000254612D02168B1F5881F04F104040ED2A2
:102E30006846FFF76FFF0028F1D10120069B009A3A
:102E40001D60099B1A6002B070BD0020F6E70220E9
:102E5000F4E7000030B585B0CDE90023099B02936B
:102E6000144D0A9B0393DDE90123009CA24215D077
:102E7000039A9A4212D029466846FFF793FE831CB4
:102E8000014609D0B0F5881F11D2012202A8FFF730
:102E900092FF0028E7D10094012000E00020089B69
:102EA000009A1A600B9B029A1A6005B030BD02208E
:102EB000F5E700BFFFFF10008B070CD5D0E900320B
:102EC000D21A022A09D9064A1188927819809A7072
:102ED000036803330360012070470020704700BF80
:102EE000244202082DE9F0410E46044619463046B8
:102EF000069D1746FFF7E0FF78B3D4E900329A4207
:102F00002ED01988A1F55840B0F5806F1DD2012D43
:102F100028D0D21A022A23D95B88A3F55C42B2F5E5
:102F2000806F1FD2A3F15773A3F5773303EB812191
:102F30004FF002088F4215D33046FFF7A0FE60B174
:102F4000236803EB48032360D7E7A1F55C43B3F59F
:102F5000806F07D34FF00108ECE70120BDE8F08156
:102F60000020FBE70220F9E77FB5CDE90223099BAA
:102F700004930A9B059300230093074A04A902A81F
:102F8000FFF7B0FF089B029A1A600B9B049A1A6025
:102F900007B05DF804FB00BFFFFF100070B50D46E1
:102FA0000446194628461646FFF786FF70B1D4E955
:102FB00000329A420CD019688E420BD32846FFF794
:102FC0005EFE18B1236804332360F0E7012070BD72
:102FD0000020FCE70220FAE71FB5CDE90023079B9C
:102FE0000293089B0393074A002302A96846FFF750
:102FF000D5FF069B009A1A60099B029A1A6005B0D9
:103000005DF804FBFFFF100038B54B0704460CD5F4
:10301000D0E900535B1B022B07D904490322284641
:1030200018F07EFA08B90335256038BDF44202086D
:1030300070B50C46194605461646FFF7E5FFD5E97B
:1030400000239A4212D0D4E900329A4201D10120E1
:1030500070BD31462846FFF738FD831CF7D0864205
:1030600006D323681A1D22601860E8E70020EFE706
:103070000220EDE71FB5CDE90023079B0293089BD3
:103080000393074A002302A96846FFF7D1FF069B76
:10309000009A1A60099B029A1A6005B05DF804FB59
:1030A000FFFF100037B5CDE9000168469DF8181004
:1030B00014461D46FFF7A8FF002044B1A84204F1C2
:1030C000FF3404D829466846FFF7FFFCF5E700986F
:1030D00003B030BD13B51446194600230093049A7B
:1030E000034B2046FFF7DEFF001B02B010BD00BF00
:1030F000FFFF10002DE9F8430D4619460446174618
:103100001E46FFF781FFD4E90098C1451BD0D5E9E1
:1031100000329A4217D039462046FFF7D6FC831C6E
:10312000014604D108980130C0B2BDE8F883874257
:103130000BD332462846FFF73EFE0028E3D1C4E910
:1031400000980120F1E70020EFE70220EDE7000002
:103150007FB5CDE90223099B04930A9B05930023C5
:103160000093074A012304A902A8FFF7C3FF089BA5
:10317000029A1A600B9B049A1A6007B05DF804FB70
:10318000FFFF1000F7B5CDE900019DF8201068465B
:1031900016461C46FFF738FF00256F1CB7420ED2BB
:1031A00021466846FFF791FCA04202D9009803B07F
:1031B000F0BDB0F5803F28BF3D460135EDE7F5D1C4
:1031C0004FF6FF734FF6FE718C4294BF21461946AD
:1031D0006846FFF77AFCE9E713B514461946002361
:1031E0000093049A034B2046FFF7CCFF001B02B06C
:1031F00010BD00BFFFFF100073B51D46079B009375
:10320000089B01931446A54225D02188A1F5584377
:10321000B3F5806F15D22B1B022B1CD96288A2F547
:103220005C43B3F5806F1ED2A2F15772A2F57732DC
:1032300002EB812102266846FFF76CFD40B90120B0
:103240000AE0A1F55C43B3F5806F0CD30126F2E7E9
:1032500004EB4604D7E70020069B009A1C60099BFC
:103260001A6002B070BD0220F6E7000037B5DDE954
:103270000745CDE900230F49DDE900329A4214D019
:10328000A54207D10120069B009A1A60099B1C6089
:1032900003B030BD6846FFF785FC831CF2D0B0F563
:1032A000881F04D244F8040BE6E70020EBE7022075
:1032B000E9E700BFFFFF100037B5CDE90023069D09
:1032C00008491446002045B1B0F5881F05F1FF35C7
:1032D00003D26846FFF766FCF5E70098001B03B0D1
:1032E00030BD00BFFFFF1000F7B5CDE90023089EF9
:1032F0000E4915460024671CBE420FD96846FFF7E9
:1033000051FCB0F5881F03D30098401B03B0F0BDFB
:10331000B0F5803F28BF3C460134ECE7F4D14FF6CE
:10332000FF716846FFF73EFCEEE700BFFFFF1000AD
:1033300010B5034B03600446FEF78EF8204610BD1F
:10334000D042020810B50446FFF7F2FF204615F000
:1033500039FD204610BD000010B5034B0360044644
:10336000FEF77AF8204610BD4C42020810B504461C
:10337000FFF7F2FF204615F025FD204610BD0000A6
:1033800010B5034B03600446FEF766F8204610BDF7
:103390007842020810B50446FFF7F2FF204615F008
:1033A00011FD204610BD000010B5034B036004461C
:1033B000FEF752F8204610BDA442020810B504469C
:1033C000FFF7F2FF204615F0FDFC204610BD00007F
:1033D0002DE9F04F89B00B6801934B68A94F029318
:1033E0008B680393A84B3B600125019B7D600446DD
:1033F0000E46BB6000213846FFF782FA7B68D4F89E
:103400000480DFF888B2DFF888A22B447B60A14BF0
:103410001846FEF7BFF848F820709F4F9F4A7D601E
:103420003A60FEF73BF87A68D4F80480B8602A4422
:103430007A609B48FEF7AEF848F82070994F9A4A98
:10344000029B3A600022BB6011467D603846FFF760
:1034500003F87A68D4F804802A447A605846FEF764
:1034600099F848F82070914F914A039B3A600022E6
:10347000BB6011467D603846FEF7AAFF7A68D4F833
:1034800004802A447A605046FEF784F848F8207099
:10349000DFF82082884AD4F80490C8F80020022778
:1034A000C8F804708548FEF775F849F82080DFF801
:1034B0001082844AD4F80490C8F80020C8F8047038
:1034C0008148FEF767F849F82080DFF80082804ADB
:1034D000D4F80490C8F80020C8F804707D48FEF7BE
:1034E00059F849F82080DFF8F081294640460AF073
:1034F000FDF8D8F80420D4F8049078482A44C8F895
:103500000420FEF747F849F82080F36804933369F4
:1035100005937369724E734A0693049BB36000214E
:10352000756032603046FFF753FA7268DFF8B89181
:10353000D4F804802A4472604846FEF72BF848F815
:1035400020606A4E6A4A75603260FDF7A7FF7268B4
:10355000D4F80480B0602A4472606648FEF71AF816
:1035600048F82060644E654A059B32600022B360D3
:10357000756011463046FFF72FF87268DFF88081DA
:10358000616807912A4472604046FEF703F8079984
:103590005C4A41F820605C4E069B32600022B360BA
:1035A000756011463046FEF7CFFF7268616807917B
:1035B0002A447260554A1046FDF7ECFF079941F81E
:1035C0002060534E534931605348616877600791DA
:1035D000FDF7E0FF079941F82060504E50493160F7
:1035E0005048616877600791FDF7D4FF079941F86B
:1035F00020604D4E4D4931604D48616877600791BC
:10360000FDF7C8FF079941F820604A4E2946304629
:1036100010F062FA71686568474801317160FDF722
:10362000B9FF1C4B45F820601846E568FDF7B2FF6E
:10363000019B45F820305846E568FDF7ABFF029B3B
:1036400045F820305046E568FDF7A4FF039B45F898
:1036500020304846E568FDF79DFF049B45F8203083
:103660004046E568FDF796FF284A059B45F820305F
:103670001046E468FDF78EFF069B44F8203009B041
:10368000BDE8F08FA0130020D86002083815002094
:10369000341500202815002018140020BC600208F2
:1036A0000C150020E8130020BC610208F413002070
:1036B00088610208C8130020386202083015002013
:1036C000D8130020506202082C150020B8130020E7
:1036D0007C620208141500208013002010150020C1
:1036E000AC130020D06802088815002024140020A4
:1036F000746802086C15002000140020B4690208E8
:1037000098150020806902080C14002094150020F0
:10371000D0130020306A020890150020E01300202A
:10372000486A02088C150020C0130020746A020841
:1037300074150020901300207015002001F050BD7A
:1037400002F0F6B8F8B50B6853F80C5C0746681C35
:103750000E4615F0D0FB0023044601462A463046AB
:1037600001F074FC002363553C602846F8BDF8B5B1
:103770000B6853F80C5C6FF060426B1C9342074679
:1037800034BF98004FF0FF300E4615F0B4FB002315
:10379000044601462A46304602F00EF8002344F85B
:1037A00025303C602846F8BD13B5049CCDE90034B3
:1037B00013460A46C1684FF0000005F048FD02B00C
:1037C00010BD30B58BB00D460AA901E90C00792374
:1037D0000693129B0593119B0493109B03930EAACF
:1037E000044692E8030001AB83E80300099B0093C1
:1037F0002046089BAA684FF0000105F0CEFE204647
:103800000BB030BD30B58BB00D460AA901E90C00F4
:103810006D230693129B0593119B0493109B0393B6
:103820000EAA044692E8030001AB83E80300099B5B
:1038300000932046089BAA684FF0000105F0ADFEFA
:1038400020460BB030BD30B58BB00D460AA901E95A
:103850000C0077230693129B0593119B0493109BF6
:1038600003930EAA044692E8030001AB83E8030029
:10387000099B00932046089BAA684FF0000105F0C1
:103880008CFE20460BB030BD30B58BB00D460AA97A
:1038900001E90C0064230693129B0593119B04938A
:1038A000109B03930EAA044692E8030001AB83E841
:1038B0000300099B00932046089BAA684FF0000173
:1038C00005F06BFE20460BB030BD30B58BB00D4619
:1038D0000AA901E90C0074230693129B0593119B1E
:1038E0000493109B03930EAA044692E8030001ABD5
:1038F00083E80300099B00932046089BAA684FF0C9
:10390000000105F04AFE20460BB030BD81684FF043
:10391000000005F03CBEF0B591B00AAC84E80C00A4
:10392000002307930D930EAB06930DAB0593199BE4
:1039300004939DF86030039316AA0F46054692E85B
:10394000030001AB83E803000B9B009308AE0A9BC6
:10395000BA684FF00001304606F015FA96E8030009
:103960000D9B84E803005BB9DDE90E231B99C1E9D7
:10397000002394E8030085E80300284611B0F0BD59
:103980001A9A1360F5E710B58AB00DF1280C0CE90E
:103990000C0000230693DDE91023CDE904239DF8F4
:1039A000383003930D9B02939DF830300193099BAF
:1039B00000938A68089B4FF00001044606F0F6F871
:1039C00020460AB010BD0A4601694FF0000005F01C
:1039D000D6BD07B513460A680093016952F80C3C3E
:1039E0004FF0000005F09FFD03B05DF804FB13B538
:1039F000049CCDE9003413460A46C1684FF000002C
:103A000005F02FFC02B010BD30B58BB00D460AA9F1
:103A100001E90C0079230693129B0593119B0493F3
:103A2000109B03930EAA044692E8030001AB83E8BF
:103A30000300099B00932046089BAA684FF00001F1
:103A400005F005FE20460BB030BD30B58BB00D46FD
:103A50000AA901E90C006D230693129B0593119BA3
:103A60000493109B03930EAA044692E8030001AB53
:103A700083E80300099B00932046089BAA684FF047
:103A8000000105F0E4FD20460BB030BD30B58BB031
:103A90000D460AA901E90C0077230693129B0593B2
:103AA000119B0493109B03930EAA044692E8030013
:103AB00001AB83E80300099B00932046089BAA689A
:103AC0004FF0000105F0C3FD20460BB030BD30B50E
:103AD0008BB00D460AA901E90C0064230693129BE2
:103AE0000593119B0493109B03930EAA044692E83E
:103AF000030001AB83E80300099B00932046089B69
:103B0000AA684FF0000105F0A2FD20460BB030BDC1
:103B100030B58BB00D460AA901E90C007423069359
:103B2000129B0593119B0493109B03930EAA0446CA
:103B300092E8030001AB83E80300099B0093204651
:103B4000089BAA684FF0000105F081FD20460BB0EC
:103B500030BD81684FF0000005F01CBDF0B591B09C
:103B60000AAC84E80C00002307930D930EAB069378
:103B70000DAB0593199B04939DF86030039316AA2F
:103B80000F46054692E8030001AB83E803000B9B58
:103B9000009308AE0A9BBA684FF00001304606F069
:103BA0008EFA96E803000D9B84E803005BB9DDE91B
:103BB0000E231B99C1E9002394E8030085E8030064
:103BC000284611B0F0BD1A9A1360F5E710B58AB017
:103BD0000DF1280C0CE90C0000230693DDE91023FD
:103BE000CDE904230E9B03930D9B02939DF8303087
:103BF0000193099B00938A68089B4FF000010446DB
:103C000006F070F920460AB010BD0A4601694FF06F
:103C1000000005F0B8BC07B513460A6800930169B7
:103C200052F80C3C4FF0000005F093FC03B05DF837
:103C300004FB10B50446006843685A1E012B42601D
:103C400002D103685B689847204610BD10B5074B4A
:103C50000360036900220446DA600C30FFF7E9FFD5
:103C60002046FEF79BFE204610BD00BFD04B020849
:103C700010B50446FFF7EAFF204615F0A3F82046EA
:103C800010BD000010B5084B036003690022044614
:103C9000DA609A611A629A620C30FFF7CAFF204616
:103CA000FEF71EFC204610BDFC4C020810B5044671
:103CB000FFF7E8FF204615F085F8204610BD00000C
:103CC00010B5084B0360036900220446DA609A616C
:103CD0001A629A620C30FFF7ACFF2046FEF71AFC1E
:103CE000204610BDC84C020810B50446FFF7E8FF97
:103CF000204615F067F8204610BD000010B5054BB2
:103D0000044640F8103BFFF794FF204609F072F993
:103D1000204610BD984B020810B50446FFF7EEFF91
:103D2000204615F04FF8204610BD000010B5074B97
:103D30000360036900220446DA600C30FFF779FF64
:103D40002046FEF793FE204610BD00BFF44B02084C
:103D500010B50446FFF7EAFF204615F033F8204679
:103D600010BD000010B5084B036003690022044633
:103D7000DA601A629A621A630C30FFF75AFF204623
:103D8000FEF772FC204610BD644D020810B50446D3
:103D9000FFF7E8FF204615F015F8204610BD00009B
:103DA00010B5084B0360036900220446DA601A620A
:103DB0009A621A630C30FFF73CFF2046FEF76EFC58
:103DC000204610BD304D020810B50446FFF7E8FF4D
:103DD000204614F0F7FF204610BD000010B5054B3B
:103DE000044640F8103BFFF724FF20460FF0D0FABE
:103DF000204610BDB44B020810B50446FFF7EEFF95
:103E0000204614F0DFFF204610BD000010B5054B22
:103E1000044640F80C3BFFF70CFF204609F002F97E
:103E2000204610BD604B020810B50446FFF7EEFFB8
:103E3000204614F0C7FF204610BD000010B5054B0A
:103E4000044640F8083BFFF7F4FE204609F04CF822
:103E5000204610BD684C020810B50446FFF7EEFF7F
:103E6000204614F0AFFF204610BD000010B5054BF2
:103E7000044640F8083BFFF7DCFE204609F03EF818
:103E8000204610BD984C020810B50446FFF7EEFF1F
:103E9000204614F097FF204610BD000010B5054BDA
:103EA000044640F80C3BFFF7C4FE20460FF088FAAA
:103EB000204610BD7C4B020810B50446FFF7EEFF0C
:103EC000204614F07FFF204610BD000010B5054BC2
:103ED000044640F8083BFFF7ACFE20460FF0D2F94D
:103EE000204610BD804C020810B50446FFF7EEFFD7
:103EF000204614F067FF204610BD000010B5054BAA
:103F0000044640F8083BFFF794FE20460FF0C4F942
:103F1000204610BDB04C020810B50446FFF7EEFF76
:103F2000204614F04FFF204610BD000010B5054B91
:103F3000044640F8083BFFF77CFE204609F010F8E5
:103F4000204610BD184C020810B50446FFF7EEFFDE
:103F5000204614F037FF204610BD000010B5054B79
:103F6000044640F8083BFFF764FE20460FF0C6F910
:103F7000204610BD404C020810B50446FFF7EEFF86
:103F8000204614F01FFF204610BD836910B504467B
:103F900003B19847204610BD37B5084614460D4674
:103FA00009F06EFA84F82400284609F06CFA002320
:103FB000A3606361E361012384F8643084F8250021
:103FC000294601A809F062FA01A904F10800FFF7E7
:103FD000B9FBE06001A801F003F9294601A809F046
:103FE0005CFA01A904F11400FFF7ACFBA06101A881
:103FF00001F0F6F8294601A809F056FA01A904F1E2
:104000001C00FFF79FFB206201A801F0E9F803B054
:1040100030BD37B5084614460D460FF027FC6062E8
:1040200028460FF026FC0023A3606361E3610123AF
:1040300084F82431A062294601A80FF01DFC01A9D3
:1040400004F10800FFF77EFBE06001A801F0C8F86A
:10405000294601A80FF017FC01A904F11400FFF78D
:1040600086FBA06101A801F063FC294601A80FF0BE
:1040700011FC01A904F11C00FFF779FB206201A8E3
:1040800001F056FC03B030BD10B4084611461A4684
:10409000DDE90134019410BC09F04ABB10B40846B4
:1040A00011461A46DDE90134019410BC0FF036BD0B
:1040B00037B5084614460D4609F02FF960742846B6
:1040C00009F02EF9A074284609F049F90023A360ED
:1040D0006361E3616362012384F84330E06229464F
:1040E00001A809F020F901A904F10800FFF72AFB53
:1040F000E06001A801F074F8294601A809F01AF956
:1041000001A904F11400FFF71DFBA06101A801F053
:1041100067F8294601A809F014F901A904F11C0067
:10412000FFF710FB206201A801F05AF8294601A808
:1041300009F00EF901A904F12400FFF703FBA062C6
:1041400001A801F04DF8284609F00CF92063284633
:1041500009F00DF9606303B030BD37B50846144669
:104160000D4609F0ABF86074284609F0AAF8A0746F
:10417000284609F0C5F80023A3606361E361636228
:10418000012384F84330E062294601A809F09CF835
:1041900001A904F10800FFF7D5FAE06001A801F0D9
:1041A0001FF8294601A809F096F801A904F11400A6
:1041B000FFF7C8FAA06101A801F012F8294601A88A
:1041C00009F090F801A904F11C00FFF7BBFA206286
:1041D00001A801F005F8294601A809F08AF801A90B
:1041E00004F12400FFF7AEFAA06201A800F0F8FF86
:1041F000284609F088F82063284609F089F86063AA
:1042000003B030BD37B5084614460D460FF07BFAB3
:10421000606128460FF07AFAA06128460FF095FAFF
:104220000023A360E3616362E362012384F86C30DE
:104230006063294601A80FF06CFA01A904F1080097
:10424000FFF780FAE06001A800F0CAFF294601A844
:104250000FF066FA01A904F11C00FFF788FA20624A
:1042600001A801F065FB294601A80FF060FA01A939
:1042700004F12400FFF77BFAA06201A801F058FBCB
:10428000294601A80FF05AFA01A904F12C00FFF702
:104290006EFA206301A801F04BFB28460FF058FA94
:1042A000A06328460FF059FAE06303B030BD37B57C
:1042B000084614460D460FF0F7F9606128460FF0E6
:1042C000F6F9A06128460FF011FA0023A360E3611C
:1042D0006362E362012384F86C306063294601A8BD
:1042E0000FF0E8F901A904F10800FFF72BFAE060EC
:1042F00001A800F075FF294601A80FF0E2F901A915
:1043000004F11C00FFF733FA206201A801F010FB52
:10431000294601A80FF0DCF901A904F12400FFF7F8
:1043200026FAA06201A801F003FB294601A80FF0BC
:10433000D6F901A904F12C00FFF719FA206301A8AE
:1043400001F0F6FA28460FF0D4F9A06328460FF0E2
:10435000D5F9E06303B030BD13B50C4601A8114692
:104360001A466B4601F098F9049A01A9204609F013
:10437000CDF9044601A800F033FF204602B010BD7D
:1043800013B50C4601A811461A466B4601F084F994
:10439000049A01A920460FF0AFFB044601A800F0E3
:1043A0001FFF204602B010BD0846114609F0BDB9F6
:1043B000084611460FF0AFBB084609F008B9084699
:1043C0000FF0FBBA82B0F0B587B005469DF850708B
:1043D0000D93742F16461398DDE911210FAC0DAB28
:1043E0001ED00ED8642F2DD0CDE90310029294E890
:1043F00003008DE8030031460CCB284609F03EF956
:104400001AE0772F2BD0CDE90310029294E8030035
:104410008DE8030031460CCB284609F04BF90BE040
:10442000CDE90310029294E803008DE803003146C1
:104430000CCB284609F0CEF8284607B0BDE8F0407E
:1044400002B07047CDE90310029294E803008DE8B2
:10445000030031460CCB284609F0D8F8ECE7CDE94B
:104460000310029294E803008DE8030031460CCB60
:10447000284609F0E7F8DFE782B0F0B587B00546D7
:104480009DF850700D93742F16461398DDE9112195
:104490000FAC0DAB1ED00ED8642F2DD0CDE903107C
:1044A000029294E803008DE8030031460CCB2846C5
:1044B0000FF0DAFA1AE0772F2BD0CDE90310029231
:1044C00094E803008DE8030031460CCB28460FF03A
:1044D000E7FA0BE0CDE90310029294E803008DE8BF
:1044E000030031460CCB28460FF06AFA284607B085
:1044F000BDE8F04002B07047CDE90310029294E8A5
:1045000003008DE8030031460CCB28460FF074FA07
:10451000ECE7CDE90310029294E803008DE8030074
:1045200031460CCB28460FF083FADFE7F8B5AF4AE7
:104530000C466FF00103AE49054614F047FC0646F1
:1045400010B104682046F8BDAA4B9C4229D16820CE
:1045500014F0C0FCA84B46600746C0E90266C0E9FB
:104560000566C0E9076603600674868480F86460A7
:10457000142014F0AFFCA14B466003608760314605
:104580000446FEF7BDF96B68E56001336B609C4B38
:10459000236027613A4629464FF0000004F0DDFD14
:1045A000D0E7984B9C4210D1102014F093FC964B0E
:1045B000036046600446FCF771FF6B68C4E90205BE
:1045C00001336B60914B2360BCE7914B9C420AD155
:1045D0000C2014F07FFC6B6801336B60C0E901654F
:1045E0008C4B0446EFE78C4B9C420AD10C2014F014
:1045F00071FC6B6801336B60C0E90165874B044651
:10460000E1E7874B9C420AD10C2014F063FC6B68F5
:1046100001336B60C0E90165824B0446D3E7824BEE
:104620009C422FD1442014F055FC804B0682074653
:10463000C0E90036C0E90266C0E90566C0E9076660
:10464000C0E90966C0E90B668674466380F843607A
:10465000142014F03FFC764B4660036087603246BE
:1046600031460446FDF7B4FE6B68E56001336B60CC
:10467000704B236027613A4629464FF0000004F052
:10468000FAFD5FE76C4B9C422FD1442014F022FCD2
:104690006A4B06820746C0E90036C0E90266C0E9F7
:1046A0000566C0E90766C0E90966C0E90B6686745D
:1046B000466380F84360142014F00CFC604B4660A5
:1046C00003608760324631460446FDF7C5FE6B68DD
:1046D000E56001336B605B4B236027613A462946F6
:1046E0004FF0000004F01DFE2CE7574B9C420CD10C
:1046F000142014F0EFFB3146044608F0F7FF6B6816
:10470000256101336B60514B5DE7514B9C422CD1CD
:104710004FF4947014F0DEFB00274E4B47600646C2
:10472000C0E90277C0E90577C0E90777C0E90977F2
:104730000360077480F82471142014F0CBFB464BFF
:1047400047600360866039460446FEF741F96B68AE
:10475000E56001336B60414B236026613246294698
:104760004FF0000004F037FDECE63D4B9C4210D1C9
:10477000102014F0AFFB002343603A4B0360044663
:10478000FCF78CFE6B6801336B60C4E90205364BA5
:1047900019E7364B9C420BD10C2014F09BFB0023F5
:1047A000C0E901356B6801336B600446304B0AE7A2
:1047B000304B9C420BD10C2014F08CFB0023C0E941
:1047C00001356B6801336B6004462B4BFBE62B4BCA
:1047D0009C4257D10C2014F07DFB0023C0E9013529
:1047E0006B6801336B600446254BECE6E445020838
:1047F000E8400208281500200C420208D860020890
:10480000D04B02080C150020BC600208604B020867
:1048100014150020184C020830150020684C0208BE
:104820002C150020984C02083415002094410208F1
:1048300088610208FC4C020838150020A4410208D7
:10484000BC610208C84C020810150020984B0208F1
:10485000881500201C420208D0680208F44B0208A8
:104860006C150020746802087C4B02087415002047
:10487000404C020890150020804C02088C15002046
:10488000B04C02083E4B9C4231D1702014F022FB08
:1048900000273C4B47600646C0E90277C0E9057730
:1048A000C0E90777C0E90977C0E90B77C0E90D7760
:1048B00003600774C76380F86C70142014F00AFB5F
:1048C000314B4760036086603A4639460446FDF73F
:1048D0003BFE6B68E56001336B602C4B2360266107
:1048E000324629464FF0000004F071FD2AE6284BBD
:1048F0009C4231D1702014F0EDFA0027254B47601F
:104900000646C0E90277C0E90577C0E90777C0E944
:104910000977C0E90B77C0E90D7703600774C763B7
:1049200080F86C70142014F0D5FA1B4B47600360BC
:1049300086603A4639460446FDF74EFE6B68E560F0
:1049400001336B60154B23602661324629464FF0D8
:10495000000004F092FDF5E5114B9C420CD11420AF
:1049600014F0B8FA002104460FF0B6F86B68256120
:1049700001336B600B4B26E60B4808F025F800BFAF
:1049800094150020B441020880690208644D0208B1
:1049900098150020C4410208B4690208304D02088D
:1049A00070150020B44B0208804502088B6913B5CE
:1049B000044613B9054808F007F8D1E9001201AB25
:1049C00000F06AFE204602B010BD00BFAD450208EF
:1049D00010B58AB00446009300201346C9680990B8
:1049E00003AA05F0BFF903A92046FFF7DFFF03A8DC
:1049F000FFF7CBFA20460AB010BD30B58DB00446A3
:104A000000200B901198006850F80C5CCDE902056D
:104A10001098CDE900301346096905AA4FF000004F
:104A200005F028FA05A92046FFF7C0FF05A8FFF703
:104A3000ACFA20460DB030BD82B02DE9F04788B009
:104A4000044618999DF84C80DDF850909DF854A0CC
:104A50001193154611AEB1B107AF3846FFF7A6FF67
:104A6000CDE902A7CDE90089204696E80C00294649
:104A700008F0DAFC384600F0B3FB204608B0BDE889
:104A8000F04702B07047DDE91623CDE9019ACDE980
:104A90000423CDF8008096E80C00294608F0AAFC13
:104AA000EBE7F0B597B00AAC84E80C000FAE00233A
:104AB000CDE9063615930D930DAB05931F9B04931B
:104AC0009DF8783003931CAA8C46054692E80300B3
:104AD00001AB83E803000B9B009308AF0A9BDCF853
:104AE00008204FF00001384605F04DF997E8030023
:104AF0000D9B84E80300A3B931460EA8FFF756FFCB
:104B000021980EA900F0BEFA0EA800F069FB94E807
:104B1000030085E803003046FFF737FA284617B050
:104B2000F0BD209A1360F2E738B5836904460D465C
:104B300003B198472946204600F08FFD2B6853F8B3
:104B40000C3C6360014BA361204638BD3D37000833
:104B500070B592B00BAD0E4608A981E80C00044672
:104B60001999002328461193FFF7DEFF0022002346
:104B7000CDE904239DF860300393179B02939DF8C1
:104B800058300193099BB26800934FF00001089BD5
:104B90000695204605F00AF82846FFF7F6F9204664
:104BA00012B070BD13B5144601A81A46049B08F054
:104BB000C5FD01A92046FFF7B7FF01A800F010FBD3
:104BC00002B010BDF0B587B004AC0E4615461F46C6
:104BD000DDE90E1203AB204600F05EFD0D9B009355
:104BE0003A460C9B0194314605A808F092FD05A9B0
:104BF0002846FFF799FF05A800F0F2FA204600F0DA
:104C0000EFFA07B0F0BD000082B02DE9F0438BB0A1
:104C100005461A9813931646DDE918189DF85C208E
:104C200015AB13AC98B1CDE90480CDE9022193E82E
:104C300003008DE80300314694E80C00284608F094
:104C40009BFB28460BB0BDE8F04302B0704709AFAC
:104C5000CDE90487CDE902211048099093E80300CB
:104C60008DE803000DF1180994E80C003146484620
:104C700008F0A1FB99E80300D8F8003084E80300AD
:104C80001BB91B983946FFF74FFF94E8030085E8EE
:104C90000300384600F0A4FAD3E700BF3C1400201C
:104CA0008B6913B5044613B9054807F08DFED1E9A9
:104CB000001201AB01F070F8204602B010BD00BF39
:104CC000AD45020810B58AB0044600930020134693
:104CD000C968099003AA05F0E1F903A92046FFF786
:104CE000DFFF03A8FFF751F920460AB010BD30B529
:104CF0008DB0044600200B901198006850F80C5CB1
:104D0000CDE902051098CDE900301346096905AADE
:104D10004FF0000005F048FA05A92046FFF7C0FF54
:104D200005A8FFF732F920460DB030BD82B02DE95D
:104D3000F04788B0DDE9148918999DF84CA01193CB
:104D40000446154611AEB1B107AF3846FFF7A8FFCC
:104D5000CDE90297CDE900A8204696E80C00294647
:104D60000EF057FD384600F0E3FD204608B0BDE8E0
:104D7000F04702B07047DDE91623CDE90189CDE99E
:104D80000423CDF800A096E80C0029460EF028FD7B
:104D9000EBE7F0B597B00AAC84E80C000FAE002347
:104DA000CDE9063615930D930DAB05931F9B049328
:104DB0009DF8783003931CAA8C46054692E80300C0
:104DC00001AB83E803000B9B009308AF0A9BDCF860
:104DD00008204FF00001384605F071F997E803000C
:104DE0000D9B84E80300A3B931460EA8FFF758FFD6
:104DF00021980EA900F0FEFC0EA800F099FD94E8A1
:104E0000030085E803003046FFF7BFF8284617B0D7
:104E1000F0BD209A1360F2E738B5836904460D4669
:104E200003B198472946204600F097FF2B6853F8B6
:104E30000C3C6360014BA361204638BD413700083C
:104E400070B592B00BAD0E4608A981E80C0004467F
:104E50001999002328461193FFF7DEFF0022002353
:104E6000CDE90423189B0393179B02939DF85830B8
:104E70000193099BB26800934FF00001089B0695CF
:104E8000204605F02FF82846FFF77FF8204612B09D
:104E900070BD13B5144601A81A46049B0EF044FEDB
:104EA00001A92046FFF7B8FF01A800F041FD02B0BC
:104EB00010BDF0B587B004AC0E4615461F46DDE9BF
:104EC0000E1203AB204600F067FF0D9B00933A469D
:104ED0000C9B0194314605A80EF011FE05A9284649
:104EE000FFF79AFF05A800F023FD204600F020FD03
:104EF00007B0F0BD82B02DE9F0438BB005461A989B
:104F000013931646DDE918189DF85C2015AB13AC19
:104F100098B1CDE90480CDE9022193E803008DE842
:104F20000300314694E80C0028460EF01BFC28468E
:104F30000BB0BDE8F04302B0704709AFCDE904877C
:104F4000CDE902211048099093E803008DE80300A1
:104F50000DF1180994E80C00314648460EF021FC8A
:104F600099E80300D8F8003084E803001BB91B98C7
:104F70003946FFF751FF94E8030085E803003846FF
:104F800000F0D6FCD3E700BF4C14002013460A46BD
:104F900011B1197816F074BA0846704708B503467F
:104FA00008461B6853F80C3C8342114603D2024664
:104FB000014807F00FFD08BD904D0208006801F19F
:104FC000804150F80C0C0439091A914208B502D2FC
:104FD000184607F0FCFC08BD0068884207D850F866
:104FE0000C3C1844814294BF0020012070470120EE
:104FF0007047012A30B403D10B78037030BC70477E
:10500000002AFBD030BC16F09BBA012A30B403D181
:105010000B78037030BC7047002AFBD030BC16F010
:105020009DBA0B46012B10B41146044602D12270E2
:1050300010BC7047002BFBD010BC1A4616F0A8BA63
:1050400008B5521AFFF7D5FF08BD00002DE9F04161
:10505000044690460F460A4A19461E46FFF79EFF31
:10506000216851F80C5CAC1B444528BF444624B170
:10507000224631443846FFF7BCFF2046BDE8F081A8
:10508000C74D0208036853F8042C002AB8BF002259
:1050900010B5B8BF43F8042C0A6852F8044C002C31
:1050A000BCBF002442F8044C02600B6010BD0368D2
:1050B00010B553F80C4C1046A04204D21A5C8A4238
:1050C00003D10130F8E74FF0FF3010BD044B984298
:1050D00004D000238360016008440373704700BF5D
:1050E00030140020154B984210B5044602D91448DC
:1050F00007F06DFC884203D94B00984238BF1C462C
:1051000004F11D03B3F5805F04F10D000CD98C424E
:105110000AD90A4804F58054C3F30B03E41A844205
:1051200028BF044604F10D00002801DA07F046FC10
:1051300013F0D0FE00224460826010BDFCFFFF3FF0
:10514000DA4D0208F8B50F46044680B10021FFF79A
:10515000C9FF00F10C060546214630463A46FFF7E6
:1051600060FF21462846FFF7B1FF3046F8BD014EEB
:10517000FBE700BF3C14002010B50446084611466A
:105180001A46FFF7DFFF2060204610BD2DE9F041F1
:10519000A1EB000805460E4640460021FFF7A2FF9E
:1051A00000F10C070446324629463846FFF748FF0F
:1051B00020464146FFF78AFF3846BDE8F08113F0EC
:1051C00001BE0000054A904210B506D08268541E08
:1051D000002A846001DCFFF7F2FF10BD30140020CC
:1051E00013B50446006801A90C38FFF7EBFF204611
:1051F00002B010BD036813B50446A3F10C0053F8C8
:10520000043C002B06DD01A9FFF7DCFF034B236004
:1052100002B010BD0021FFF759FFF9E73C14002050
:105220002DE9F74F0546006850F80C7C02EB0109A8
:105230000C46A3EB020850F8081CB84488451E46EB
:10524000A7EB090703D850F8043C002B1EDD01AA88
:105250004046FFF747FF824600F10C0B24B1296856
:1052600022465846FFF7C5FE47B1296804F10C00F5
:1052700030443A4649445044FFF7BBFE286801A930
:105280000C38FFF79FFFC5F800B000E03FB9286871
:1052900041460C38FFF71AFF03B0BDE8F08F964285
:1052A000F5D0344400EB09013A462044FFF7ADFE47
:1052B000EDE7000003680A4A934210B504460DD09A
:1052C00053F8043C002B04DD00231A461946FFF76F
:1052D000A7FF23684FF0FF3243F8042C10BD00BF36
:1052E0003C14002008B5036853F8043C002B01DB94
:1052F000FFF7E0FF08BD10B50446FFF7F3FF206895
:1053000010BD000070B504461546094A0E46FFF769
:1053100045FE236853F80C2C921BAA4201464FF01D
:105320000003204628BF2A46FFF77AFF204670BDBB
:10533000F24D0208F8B51C4617460B4B05460E46C3
:1053400022463946FFF73AFE23463A46314628467A
:10535000FFF766FF34B128689DF8182021463044D5
:10536000FFF75FFE2846F8BD064E020837B5046811
:10537000009205460C1B012300222146FFF7DAFFAD
:1053800028684FF0FF3340F8043C204403B030BDA0
:10539000F8B5069F1E463B4604460D46FFF740FF04
:1053A0002FB120683A4631462844FFF722FE2046B6
:1053B000F8BD00002DE9F34107681A4B57F80C8C33
:1053C00004460E4641461546FFF7F8FD3146204695
:1053D000FFF702FE18B957F8043C002B0BDD2046FE
:1053E0000095334642460021FFF7D2FF044620468F
:1053F00002B0BDE8F081F31B9D420AD82A4631462F
:105400003846FFF7F6FD206829460C38FFF75EFEA8
:10541000EDE7002BF7D02A4631463846FFF7F5FD79
:10542000F1E700BF234E0208034B98421EBF83687A
:10543000013383600C3070473014002070B504468F
:10544000104623680A4618446168FFF74BFE22683D
:10545000054600F10C0622B104F10C013046FFF7BD
:10546000C8FD28462168FFF731FE304670BD37B5CC
:105470000446006850F8083C994203D150F8043CB7
:10548000002B11DD50F80C2D91422CBFC2EB010214
:10549000C2EB020201A9FFF7D1FF0546206801A96E
:1054A0000C38FFF78FFE256003B030BDF8B50B68F0
:1054B00053F80C7C04460E46E7B1036853F80C5CC5
:1054C00053F8082C3D44954203D853F8043C002B74
:1054D00003DD29462046FFF7CAFF2368316853F8E9
:1054E0000C0C3A461844FFF784FD206829460C3816
:1054F000FFF7ECFD2046F8BD2DE9F04104460D46CE
:1055000090462AB3184B0021FFF758FD276857F83B
:105510000C6C57F8083C46449E4203D857F8043CAC
:10552000002B08DD29462046FFF756FD98B131468D
:105530002046FFF79CFF236853F80C0C29461844BB
:105540004246FFF756FD206831460C38FFF7BEFD96
:105550002046BDE8F08131462046FFF788FF2168EC
:10556000ED1B0D44E7E700BF384E0208F8B50446CE
:1055700017460D4609B30A46114B0021FFF71EFDE1
:10558000236853F80C6C53F8082C2E44964203D829
:1055900053F8043C002B03DD31462046FFF767FF3C
:1055A000236853F80C0C294618443A46FFF739FD96
:1055B000206831460C38FFF789FD2046F8BD00BF52
:1055C000384E0208F8B5036853F80C6C0B4B0C46C8
:1055D00017460A4631460546FFF7F0FCA64205D2BB
:1055E0003A46A11B2846FFF7C1FFF8BDFDD94FF091
:1055F000FF3221462846FFF785FEF6E74D4E0208AA
:1056000008B50022FFF7DEFF08BD036870B553F848
:105610000C5C53F8082C0135954204460E4603D81D
:1056200053F8043C002B03DD29462046FFF71FFFFB
:10563000236853F80C2C9E54206829460C38FFF739
:1056400045FD70BD08B58368002B02DBFFF7ECFE5B
:1056500008BD0022FFF7F2FEFAE713B5044608681A
:1056600001AA69460C38FFF7EDFF2060204602B022
:1056700010BD0000884208B507D018B1BDE8084049
:10568000FFF784BD024807F09FF9024808BD00BF3C
:10569000624E02083C14002010B50446084611462C
:1056A00001441A464FF00003FFF7E4FF2060204654
:1056B00010BD10B50446084611461A464FF00003C7
:1056C000FFF7D8FF2060204610BD70B5054616468E
:1056D0000C4661B1084617F0E7FF21184FF00003B0
:1056E00032462046FFF7C6FF2860284670BD4FF0BF
:1056F000FF31F3E713460A4611B119681AF0B8B939
:105700000846704708B5034608461B6853F80C3C2A
:105710008342114603D20246014807F05BF908BDF7
:10572000904D0208006801F1805150F80C0C0239CC
:10573000091A914208B502D2184607F048F908BD87
:105740000068884208D850F80C3C00EB8300814286
:1057500094BF00200120704701207047012A30B417
:1057600003D10B68036030BC7047002AFBD030BC0B
:105770001AF08DB9012A30B403D10B68036030BC34
:105780007047002AFBD030BC1AF084B90B46012BBD
:1057900010B41146044602D1226010BC7047002BA1
:1057A000FBD010BC1A461AF078B908B5521A9210FC
:1057B000FFF7D4FF08BD00002DE9F04104469046F4
:1057C0000F460B4A19461E46FFF79CFF216851F809
:1057D0000C5CAC1B444528BF44462CB1224601EB6F
:1057E00086013846FFF7BAFF2046BDE8F08100BFCA
:1057F000C74D0208036853F8042C002AB8BF0022E2
:1058000010B5B8BF43F8042C0A6852F8044C002CB9
:10581000BCBF002442F8044C02600B6010BD0000C5
:10582000044B984205D000238360016000EB8100A7
:10583000C3607047401400206FF07043984210B569
:10584000044602D3114807F0C2F8884203D94B003E
:10585000984238BF1C46201D800000F11003B3F5AC
:10586000805F0DD98C420BD9C3F30B030848C3F5F5
:10587000805304EB9304844228BF0446201D80001B
:1058800013F028FB00224460826010BDDA4D02084C
:10589000FEFFFF0FF8B50F46044680B10021FFF769
:1058A000CBFF00F10C060546214630463A46FFF78D
:1058B0006DFF21462846FFF7B3FF3046F8BD014E85
:1058C000FBE700BF4C14002010B504460846114603
:1058D0001A46FFF7DFFF2060204610BD2DE9F0419A
:1058E0000D1AAD1006460F4628460021FFF7A4FF0B
:1058F00000F10C0804463A4631464046FFF755FF92
:1059000020462946FFF78CFF4046BDE8F08113F0A2
:1059100059BA0000054A904210B506D08268541E5C
:10592000002A846001DCFFF7F2FF10BD4014002064
:1059300013B50446006801A90C38FFF7EBFF2046B9
:1059400002B010BD2DE9F74F0546006850F80C6C09
:1059500002EB010A0F46A3EB020950F8081CB14400
:1059600089451C46A6EB0A0603D850F8043C002BD8
:105970001FDD01AA4846FFF75FFF804600F10C0BD0
:1059800027B129683A465846FFF7E8FE4EB1296824
:105990003C4408EB8400324601EB8A010C30FFF7EF
:1059A000DDFE286801A90C38FFF7B4FFC5F800B088
:1059B00000E03EB9286849460C38FFF731FF03B0D4
:1059C000BDE8F08F9442F5D03C4400EB8A013246AA
:1059D00000EB8400FFF7CEFEECE7000003680A4A04
:1059E000934210B504460DD053F8043C002B04DD5F
:1059F00000231A461946FFF7A5FF23684FF0FF3230
:105A000043F8042C10BD00BF4C14002008B50368F7
:105A100053F8043C002B01DBFFF7E0FF08BD00005A
:105A200070B504461546094A0E46FFF76BFE23681B
:105A300053F80C2C921BAA4201464FF0000320465B
:105A400028BF2A46FFF77EFF204670BDF24D0208B0
:105A5000F8B51C4617460B4B05460E4622463946FE
:105A6000FFF760FE23463A4631462846FFF76AFFB5
:105A700034B12868069A214600EB8600FFF786FEBF
:105A80002846F8BD064E0208F8B5069F1E463B465E
:105A900004460D46FFF756FF37B120683A463146B7
:105AA00000EB8500FFF75AFE2046F8BD2DE9F341D3
:105AB00007681B4B57F80C8C04460E4641461546AA
:105AC000FFF730FE31462046FFF73AFE18B957F887
:105AD000043C002B0BDD2046009533464246002156
